{
  "_format": "hh-sol-artifact-1",
  "contractName": "VoteVaultFHE",
  "sourceName": "contracts/VoteVaultFHE.sol",
  "abi": [
    {
      "inputs": [
        {
          "internalType": "address",
          "name": "_verifier",
          "type": "address"
        }
      ],
      "stateMutability": "nonpayable",
      "type": "constructor"
    },
    {
      "anonymous": false,
      "inputs": [
        {
          "indexed": true,
          "internalType": "uint256",
          "name": "proposalId",
          "type": "uint256"
        },
        {
          "indexed": true,
          "internalType": "address",
          "name": "proposer",
          "type": "address"
        },
        {
          "indexed": false,
          "internalType": "string",
          "name": "title",
          "type": "string"
        }
      ],
      "name": "ProposalCreated",
      "type": "event"
    },
    {
      "anonymous": false,
      "inputs": [
        {
          "indexed": true,
          "internalType": "uint256",
          "name": "proposalId",
          "type": "uint256"
        },
        {
          "indexed": false,
          "internalType": "bool",
          "name": "isEnded",
          "type": "bool"
        }
      ],
      "name": "ProposalEnded",
      "type": "event"
    },
    {
      "anonymous": false,
      "inputs": [
        {
          "indexed": true,
          "internalType": "uint256",
          "name": "proposalId",
          "type": "uint256"
        },
        {
          "indexed": false,
          "internalType": "uint32",
          "name": "forVotes",
          "type": "uint32"
        },
        {
          "indexed": false,
          "internalType": "uint32",
          "name": "againstVotes",
          "type": "uint32"
        }
      ],
      "name": "ResultsDecrypted",
      "type": "event"
    },
    {
      "anonymous": false,
      "inputs": [
        {
          "indexed": true,
          "internalType": "uint256",
          "name": "voteId",
          "type": "uint256"
        },
        {
          "indexed": true,
          "internalType": "uint256",
          "name": "proposalId",
          "type": "uint256"
        },
        {
          "indexed": true,
          "internalType": "address",
          "name": "voter",
          "type": "address"
        }
      ],
      "name": "VoteCast",
      "type": "event"
    },
    {
      "anonymous": false,
      "inputs": [
        {
          "indexed": true,
          "internalType": "uint256",
          "name": "voteId",
          "type": "uint256"
        },
        {
          "indexed": true,
          "internalType": "uint256",
          "name": "proposalId",
          "type": "uint256"
        },
        {
          "indexed": true,
          "internalType": "address",
          "name": "voter",
          "type": "address"
        }
      ],
      "name": "VoteRevealed",
      "type": "event"
    },
    {
      "inputs": [],
      "name": "REVEAL_PERIOD",
      "outputs": [
        {
          "internalType": "uint256",
          "name": "",
          "type": "uint256"
        }
      ],
      "stateMutability": "view",
      "type": "function"
    },
    {
      "inputs": [],
      "name": "VOTING_PERIOD",
      "outputs": [
        {
          "internalType": "uint256",
          "name": "",
          "type": "uint256"
        }
      ],
      "stateMutability": "view",
      "type": "function"
    },
    {
      "inputs": [
        {
          "internalType": "uint256",
          "name": "_proposalId",
          "type": "uint256"
        }
      ],
      "name": "canRevealVotes",
      "outputs": [
        {
          "internalType": "bool",
          "name": "",
          "type": "bool"
        }
      ],
      "stateMutability": "view",
      "type": "function"
    },
    {
      "inputs": [
        {
          "internalType": "uint256",
          "name": "_proposalId",
          "type": "uint256"
        },
        {
          "internalType": "externalEuint32",
          "name": "voteChoice",
          "type": "bytes32"
        },
        {
          "internalType": "bytes",
          "name": "inputProof",
          "type": "bytes"
        }
      ],
      "name": "castVote",
      "outputs": [
        {
          "internalType": "uint256",
          "name": "",
          "type": "uint256"
        }
      ],
      "stateMutability": "nonpayable",
      "type": "function"
    },
    {
      "inputs": [
        {
          "internalType": "string",
          "name": "_title",
          "type": "string"
        },
        {
          "internalType": "string",
          "name": "_description",
          "type": "string"
        },
        {
          "internalType": "uint256",
          "name": "_duration",
          "type": "uint256"
        }
      ],
      "name": "createProposal",
      "outputs": [
        {
          "internalType": "uint256",
          "name": "",
          "type": "uint256"
        }
      ],
      "stateMutability": "nonpayable",
      "type": "function"
    },
    {
      "inputs": [
        {
          "internalType": "uint256",
          "name": "_proposalId",
          "type": "uint256"
        }
      ],
      "name": "decryptResults",
      "outputs": [],
      "stateMutability": "nonpayable",
      "type": "function"
    },
    {
      "inputs": [
        {
          "internalType": "uint256",
          "name": "_proposalId",
          "type": "uint256"
        }
      ],
      "name": "endProposal",
      "outputs": [],
      "stateMutability": "nonpayable",
      "type": "function"
    },
    {
      "inputs": [
        {
          "internalType": "uint256",
          "name": "_proposalId",
          "type": "uint256"
        }
      ],
      "name": "getEncryptedTallies",
      "outputs": [
        {
          "internalType": "euint32",
          "name": "forVotes",
          "type": "bytes32"
        },
        {
          "internalType": "euint32",
          "name": "againstVotes",
          "type": "bytes32"
        },
        {
          "internalType": "euint32",
          "name": "totalVotes",
          "type": "bytes32"
        }
      ],
      "stateMutability": "view",
      "type": "function"
    },
    {
      "inputs": [],
      "name": "getProposalCount",
      "outputs": [
        {
          "internalType": "uint256",
          "name": "",
          "type": "uint256"
        }
      ],
      "stateMutability": "view",
      "type": "function"
    },
    {
      "inputs": [
        {
          "internalType": "uint256",
          "name": "_proposalId",
          "type": "uint256"
        }
      ],
      "name": "getProposalInfo",
      "outputs": [
        {
          "internalType": "string",
          "name": "title",
          "type": "string"
        },
        {
          "internalType": "string",
          "name": "description",
          "type": "string"
        },
        {
          "internalType": "uint8",
          "name": "forVotes",
          "type": "uint8"
        },
        {
          "internalType": "uint8",
          "name": "againstVotes",
          "type": "uint8"
        },
        {
          "internalType": "uint8",
          "name": "totalVotes",
          "type": "uint8"
        },
        {
          "internalType": "bool",
          "name": "isActive",
          "type": "bool"
        },
        {
          "internalType": "bool",
          "name": "isEnded",
          "type": "bool"
        },
        {
          "internalType": "address",
          "name": "proposer",
          "type": "address"
        },
        {
          "internalType": "uint256",
          "name": "startTime",
          "type": "uint256"
        },
        {
          "internalType": "uint256",
          "name": "endTime",
          "type": "uint256"
        },
        {
          "internalType": "uint256",
          "name": "creationTime",
          "type": "uint256"
        }
      ],
      "stateMutability": "view",
      "type": "function"
    },
    {
      "inputs": [],
      "name": "getVoteCount",
      "outputs": [
        {
          "internalType": "uint256",
          "name": "",
          "type": "uint256"
        }
      ],
      "stateMutability": "view",
      "type": "function"
    },
    {
      "inputs": [
        {
          "internalType": "uint256",
          "name": "_voteId",
          "type": "uint256"
        }
      ],
      "name": "getVoteInfo",
      "outputs": [
        {
          "internalType": "uint8",
          "name": "voteChoice",
          "type": "uint8"
        },
        {
          "internalType": "address",
          "name": "voter",
          "type": "address"
        },
        {
          "internalType": "uint256",
          "name": "timestamp",
          "type": "uint256"
        },
        {
          "internalType": "bool",
          "name": "isRevealed",
          "type": "bool"
        }
      ],
      "stateMutability": "view",
      "type": "function"
    },
    {
      "inputs": [
        {
          "internalType": "address",
          "name": "_voter",
          "type": "address"
        }
      ],
      "name": "getVoterInfo",
      "outputs": [
        {
          "internalType": "uint8",
          "name": "reputation",
          "type": "uint8"
        },
        {
          "internalType": "bool",
          "name": "hasVoted",
          "type": "bool"
        },
        {
          "internalType": "uint256",
          "name": "lastVoteTime",
          "type": "uint256"
        }
      ],
      "stateMutability": "view",
      "type": "function"
    },
    {
      "inputs": [
        {
          "internalType": "address",
          "name": "_voter",
          "type": "address"
        },
        {
          "internalType": "uint256",
          "name": "_proposalId",
          "type": "uint256"
        }
      ],
      "name": "hasVoted",
      "outputs": [
        {
          "internalType": "bool",
          "name": "",
          "type": "bool"
        }
      ],
      "stateMutability": "view",
      "type": "function"
    },
    {
      "inputs": [
        {
          "internalType": "address",
          "name": "",
          "type": "address"
        },
        {
          "internalType": "uint256",
          "name": "",
          "type": "uint256"
        }
      ],
      "name": "hasVotedOnProposal",
      "outputs": [
        {
          "internalType": "bool",
          "name": "",
          "type": "bool"
        }
      ],
      "stateMutability": "view",
      "type": "function"
    },
    {
      "inputs": [
        {
          "internalType": "uint256",
          "name": "_proposalId",
          "type": "uint256"
        }
      ],
      "name": "isVotingActive",
      "outputs": [
        {
          "internalType": "bool",
          "name": "",
          "type": "bool"
        }
      ],
      "stateMutability": "view",
      "type": "function"
    },
    {
      "inputs": [],
      "name": "owner",
      "outputs": [
        {
          "internalType": "address",
          "name": "",
          "type": "address"
        }
      ],
      "stateMutability": "view",
      "type": "function"
    },
    {
      "inputs": [],
      "name": "proposalCounter",
      "outputs": [
        {
          "internalType": "uint256",
          "name": "",
          "type": "uint256"
        }
      ],
      "stateMutability": "view",
      "type": "function"
    },
    {
      "inputs": [
        {
          "internalType": "uint256",
          "name": "",
          "type": "uint256"
        }
      ],
      "name": "proposals",
      "outputs": [
        {
          "internalType": "euint32",
          "name": "proposalId",
          "type": "bytes32"
        },
        {
          "internalType": "string",
          "name": "title",
          "type": "string"
        },
        {
          "internalType": "string",
          "name": "description",
          "type": "string"
        },
        {
          "internalType": "euint32",
          "name": "forVotes",
          "type": "bytes32"
        },
        {
          "internalType": "euint32",
          "name": "againstVotes",
          "type": "bytes32"
        },
        {
          "internalType": "euint32",
          "name": "totalVotes",
          "type": "bytes32"
        },
        {
          "internalType": "bool",
          "name": "isActive",
          "type": "bool"
        },
        {
          "internalType": "bool",
          "name": "isEnded",
          "type": "bool"
        },
        {
          "internalType": "address",
          "name": "proposer",
          "type": "address"
        },
        {
          "internalType": "uint256",
          "name": "startTime",
          "type": "uint256"
        },
        {
          "internalType": "uint256",
          "name": "endTime",
          "type": "uint256"
        },
        {
          "internalType": "uint256",
          "name": "creationTime",
          "type": "uint256"
        }
      ],
      "stateMutability": "view",
      "type": "function"
    },
    {
      "inputs": [],
      "name": "protocolId",
      "outputs": [
        {
          "internalType": "uint256",
          "name": "",
          "type": "uint256"
        }
      ],
      "stateMutability": "pure",
      "type": "function"
    },
    {
      "inputs": [
        {
          "internalType": "uint256",
          "name": "_voteId",
          "type": "uint256"
        },
        {
          "internalType": "uint8",
          "name": "_voteChoice",
          "type": "uint8"
        },
        {
          "internalType": "bytes",
          "name": "_proof",
          "type": "bytes"
        }
      ],
      "name": "revealVote",
      "outputs": [],
      "stateMutability": "nonpayable",
      "type": "function"
    },
    {
      "inputs": [
        {
          "internalType": "address",
          "name": "_voter",
          "type": "address"
        },
        {
          "internalType": "euint32",
          "name": "_reputation",
          "type": "bytes32"
        }
      ],
      "name": "updateVoterReputation",
      "outputs": [],
      "stateMutability": "nonpayable",
      "type": "function"
    },
    {
      "inputs": [],
      "name": "verifier",
      "outputs": [
        {
          "internalType": "address",
          "name": "",
          "type": "address"
        }
      ],
      "stateMutability": "view",
      "type": "function"
    },
    {
      "inputs": [],
      "name": "voteCounter",
      "outputs": [
        {
          "internalType": "uint256",
          "name": "",
          "type": "uint256"
        }
      ],
      "stateMutability": "view",
      "type": "function"
    },
    {
      "inputs": [
        {
          "internalType": "address",
          "name": "",
          "type": "address"
        }
      ],
      "name": "voters",
      "outputs": [
        {
          "internalType": "euint32",
          "name": "reputation",
          "type": "bytes32"
        },
        {
          "internalType": "bool",
          "name": "hasVoted",
          "type": "bool"
        },
        {
          "internalType": "uint256",
          "name": "lastVoteTime",
          "type": "uint256"
        },
        {
          "internalType": "address",
          "name": "voterAddress",
          "type": "address"
        }
      ],
      "stateMutability": "view",
      "type": "function"
    },
    {
      "inputs": [
        {
          "internalType": "uint256",
          "name": "",
          "type": "uint256"
        }
      ],
      "name": "votes",
      "outputs": [
        {
          "internalType": "euint32",
          "name": "voteId",
          "type": "bytes32"
        },
        {
          "internalType": "euint32",
          "name": "proposalId",
          "type": "bytes32"
        },
        {
          "internalType": "euint32",
          "name": "voteChoice",
          "type": "bytes32"
        },
        {
          "internalType": "address",
          "name": "voter",
          "type": "address"
        },
        {
          "internalType": "uint256",
          "name": "timestamp",
          "type": "uint256"
        },
        {
          "internalType": "bool",
          "name": "isRevealed",
          "type": "bool"
        }
      ],
      "stateMutability": "view",
      "type": "function"
    }
  ],
  "bytecode": "0x60806040523480156200001157600080fd5b50604051620023ed380380620023ed8339810160408190526200003491620001e5565b620001b1620000d560408051608081018252600080825260208201819052918101829052606081019190915250604080516080810182527350157cffd6bbfa2dece204a89ec419c23ef5755d815273cd3ab3bd6bcc0c0bf3e27912a92043e817b1cf69602082015273a02cda4ca3a71d7c46997716f4283aa851c2881291810191909152731364cbbf2cdf5032c47d8226a6f6fbd2afcdacac606082015290565b80517f9e7b61f58c47dc699ac88507c4f5bb9f121c03808c5676a8078fe583e464970080546001600160a01b03199081166001600160a01b039384161790915560208301517f9e7b61f58c47dc699ac88507c4f5bb9f121c03808c5676a8078fe583e46497018054831691841691909117905560408301517f9e7b61f58c47dc699ac88507c4f5bb9f121c03808c5676a8078fe583e46497028054831691841691909117905560608301517f9e7b61f58c47dc699ac88507c4f5bb9f121c03808c5676a8078fe583e46497038054909216921691909117905550565b60068054336001600160a01b031991821617909155600780549091166001600160a01b039290921691909117905562000217565b600060208284031215620001f857600080fd5b81516001600160a01b03811681146200021057600080fd5b9392505050565b6121c680620002276000396000f3fe608060405234801561001057600080fd5b506004361061018e5760003560e01c80639ed1f255116100de578063c08cc02d11610097578063da1f12ab11610071578063da1f12ab14610537578063e45f12a61461053f578063e7b3387c14610552578063f69f35101461055a57600080fd5b8063c08cc02d146104da578063c3529f31146104e2578063c687551d146104ec57600080fd5b80639ed1f255146103bb578063a07bd40014610414578063a3ec138d14610427578063ab17e8f714610493578063b1610d7e146104a6578063bc903cb8146104b057600080fd5b8063599f36d11161014b578063772744b511610125578063772744b5146103145780638589c7a5146103275780638d8242731461033a5780638da5cb5b146103a857600080fd5b8063599f36d11461026d5780635df81330146102765780637516653f146102ff57600080fd5b8063013cf08b146101935780630c0512e9146101c75780630ce0ebf4146101de5780632b7ac3f3146101f15780632da463851461021c578063425458251461025a575b600080fd5b6101a66101a1366004611af0565b61056d565b6040516101be9c9b9a99989796959493929190611b4f565b60405180910390f35b6101d060045481565b6040519081526020016101be565b6101d06101ec366004611c73565b6106ec565b600754610204906001600160a01b031681565b6040516001600160a01b0390911681526020016101be565b61024a61022a366004611cfc565b600360209081526000928352604080842090915290825290205460ff1681565b60405190151581526020016101be565b61024a610268366004611cfc565b610a05565b6101d060055481565b6102c7610284366004611af0565b6001602081905260009182526040909120805491810154600282015460038301546004840154600590940154929391926001600160a01b03909116919060ff1686565b604080519687526020870195909552938501929092526001600160a01b031660608401526080830152151560a082015260c0016101be565b61031261030d366004611cfc565b610a33565b005b61024a610322366004611af0565b610ac7565b6101d0610335366004611d6f565b610af1565b61037a610348366004611af0565b60009081526001602052604081206003810154600482015460059092015492936001600160a01b039091169260ff1690565b6040805160ff90951685526001600160a01b03909316602085015291830152151560608201526080016101be565b600654610204906001600160a01b031681565b6103f56103c9366004611dc2565b6001600160a01b0316600090815260026020819052604082206001810154910154919260ff9091169190565b6040805160ff90941684529115156020840152908201526060016101be565b610312610422366004611af0565b611011565b61046a610435366004611dc2565b60026020819052600091825260409091208054600182015492820154600390920154909260ff1691906001600160a01b031684565b604080519485529215156020850152918301526001600160a01b031660608201526080016101be565b6103126104a1366004611af0565b611191565b6101d062093a8081565b6104c36104be366004611af0565b611304565b6040516101be9b9a99989796959493929190611ddd565b6004546101d0565b6101d06201518081565b61051c6104fa366004611af0565b6000908152602081905260409020600381015460048201546005909201549092565b604080519384526020840192909252908201526060016101be565b6127116101d0565b61031261054d366004611e5a565b6114c0565b6005546101d0565b61024a610568366004611af0565b6116ac565b6000602081905290815260409020805460018201805491929161058f90611ea4565b80601f01602080910402602001604051908101604052809291908181526020018280546105bb90611ea4565b80156106085780601f106105dd57610100808354040283529160200191610608565b820191906000526020600020905b8154815290600101906020018083116105eb57829003601f168201915b50505050509080600201805461061d90611ea4565b80601f016020809104026020016040519081016040528092919081815260200182805461064990611ea4565b80156106965780601f1061066b57610100808354040283529160200191610696565b820191906000526020600020905b81548152906001019060200180831161067957829003601f168201915b5050505060038301546004840154600585015460068601546007870154600888015460099098015496979496939550919360ff80831694610100840490911693620100009093046001600160a01b03169291908c565b6000808451116107435760405162461bcd60e51b815260206004820152601e60248201527f50726f706f73616c207469746c652063616e6e6f7420626520656d707479000060448201526064015b60405180910390fd5b60008351116107a05760405162461bcd60e51b8152602060048201526024808201527f50726f706f73616c206465736372697074696f6e2063616e6e6f7420626520656044820152636d70747960e01b606482015260840161073a565b600082116107f05760405162461bcd60e51b815260206004820152601960248201527f4475726174696f6e206d75737420626520706f73697469766500000000000000604482015260640161073a565b62278d008211156108435760405162461bcd60e51b815260206004820152601e60248201527f4475726174696f6e2063616e6e6f742065786365656420333020646179730000604482015260640161073a565b600480546000918261085483611ef4565b9091555090504260006108678583611f0d565b905060405180610180016040528061087f60006116ea565b815260200188815260200187815260200161089a60006116ea565b81526020016108a960006116ea565b81526020016108b860006116ea565b815260016020808301829052600060408085018290523360608601526080850188905260a085018790524260c0909501949094528781528082529290922083518155918301519082019061090c9082611f71565b50604082015160028201906109219082611f71565b50606082015160038201556080820151600482015560a0820151600582015560c082015160068201805460e08501516101008087015161ffff1990931694151561ff001916949094179015159093029290921762010000600160b01b031916620100006001600160a01b03909316929092029190911790556101208201516007820155610140820151600882015561016090910151600990910155604051339084907f7585f467599d0f008985f231af99293be388626ac16ca59505c2f8f88969cd63906109f0908b90612031565b60405180910390a350909150505b9392505050565b6001600160a01b038216600090815260036020908152604080832084845290915290205460ff165b92915050565b6007546001600160a01b03163314610a5d5760405162461bcd60e51b815260040161073a90612044565b6001600160a01b038216610aab5760405162461bcd60e51b8152602060048201526015602482015274496e76616c696420766f746572206164647265737360581b604482015260640161073a565b6001600160a01b03909116600090815260026020526040902055565b6000818152602081905260408120600681015460ff1680156109fe57506008015442111592915050565b6000848152602081905260408120600601546201000090046001600160a01b0316610b2e5760405162461bcd60e51b815260040161073a90612088565b60008581526020819052604090206006015460ff16610b885760405162461bcd60e51b815260206004820152601660248201527550726f706f73616c206973206e6f742061637469766560501b604482015260640161073a565b600085815260208190526040902060080154421115610be95760405162461bcd60e51b815260206004820152601760248201527f566f74696e6720706572696f642068617320656e646564000000000000000000604482015260640161073a565b33600090815260036020908152604080832088845290915290205460ff1615610c545760405162461bcd60e51b815260206004820152601e60248201527f416c726561647920766f746564206f6e20746869732070726f706f73616c0000604482015260640161073a565b6000610c968585858080601f0160208091040260200160405190810160405280939291908181526020018383808284376000920191909152506116fd92505050565b600580549192506000919082610cab83611ef4565b9190505590506040518060c00160405280610cc660006116ea565b8152602001610cd560006116ea565b815260208082018590523360408084019190915242606080850191909152600060809485018190528681526001808552838220875181559487015185820155928601516002850155908501516003840180546001600160a01b0319166001600160a01b0390921691909117905592840151600483015560a0909301516005909101805460ff191691151591909117905590610d6f906116ea565b9050826000610d7e838361170b565b60008b815260208190526040902060030154909150610d9d908361173d565b60008b8152602081905260409020600381019190915560040154610dc1908261173d565b60008b8152602081905260409020600481019190915560050154610de5908461173d565b60008b8152602081905260409020600581019190915560030154610e089061176f565b5060008a815260208190526040902060040154610e249061176f565b5060008a815260208190526040902060050154610e409061176f565b5060008a815260208190526040902060030154610e5d903361177f565b5060008a815260208190526040902060040154610e7a903361177f565b5060008a815260208190526040902060050154610e97903361177f565b506007546001600160a01b031615610f255760008a815260208190526040902060030154600754610ed191906001600160a01b031661177f565b5060008a815260208190526040902060040154600754610efa91906001600160a01b031661177f565b5060008a815260208190526040902060050154600754610f2391906001600160a01b031661177f565b505b3360009081526003602090815260408083208d8452909152808220805460ff19166001179055805160808101909152908190610f60906116ea565b81526001602080830182905242604080850191909152336060948501819052600081815260028085528382208851815594880151958501805460ff19169615159690961790955586830151948401949094559490930151600390910180546001600160a01b0319166001600160a01b0390921691909117905590518c9187917f7fe1d4e6b34e228b5dc059fcdc037c71b216fb2417f47c171e505144a5e4f5fc9190a4509198975050505050505050565b6000818152602081905260409020600601546201000090046001600160a01b031661104e5760405162461bcd60e51b815260040161073a90612088565b60008181526020819052604090206006015460ff166110af5760405162461bcd60e51b815260206004820152601960248201527f50726f706f73616c20697320616c726561647920656e64656400000000000000604482015260640161073a565b6000818152602081905260409020600801544211806110d857506006546001600160a01b031633145b61113a5760405162461bcd60e51b815260206004820152602d60248201527f43616e6e6f7420656e642070726f706f73616c206265666f726520766f74696e60448201526c6720706572696f6420656e647360981b606482015260840161073a565b60008181526020818152604091829020600601805461ffff191661010017905590516001815282917f712354cc8b71a852b959baf9994ba8b6dba9bc7f8d2cc4ec7d1f4898b31bd7c191015b60405180910390a250565b6007546001600160a01b031633146111bb5760405162461bcd60e51b815260040161073a90612044565b6000818152602081905260409020600601546201000090046001600160a01b03166111f85760405162461bcd60e51b815260040161073a90612088565b600081815260208190526040902060060154610100900460ff1661125e5760405162461bcd60e51b815260206004820152601c60248201527f50726f706f73616c206d75737420626520656e64656420666972737400000000604482015260640161073a565b60008181526020819052604090206008015461127e906201518090611f0d565b42116112cc5760405162461bcd60e51b815260206004820152601760248201527f52657665616c20706572696f64206e6f7420656e646564000000000000000000604482015260640161073a565b604080516000808252602082015282917f263fc6c28dd798ce002e4e287640556e9cdb4e46c073d5c372477bf2a854a7ac9101611186565b6060806000806000806000806000806000806000808e81526020019081526020016000209050806001018160020160008060008560060160009054906101000a900460ff168660060160019054906101000a900460ff168760060160029054906101000a90046001600160a01b0316886007015489600801548a600901548a805461138e90611ea4565b80601f01602080910402602001604051908101604052809291908181526020018280546113ba90611ea4565b80156114075780601f106113dc57610100808354040283529160200191611407565b820191906000526020600020905b8154815290600101906020018083116113ea57829003601f168201915b50505050509a5089805461141a90611ea4565b80601f016020809104026020016040519081016040528092919081815260200182805461144690611ea4565b80156114935780601f1061146857610100808354040283529160200191611493565b820191906000526020600020905b81548152906001019060200180831161147657829003601f168201915b505050505099509b509b509b509b509b509b509b509b509b509b509b505091939597999b90929496989a50565b6000848152600160205260409020600301546001600160a01b031661151d5760405162461bcd60e51b8152602060048201526013602482015272159bdd1948191bd95cc81b9bdd08195e1a5cdd606a1b604482015260640161073a565b6000848152600160205260409020600301546001600160a01b031633146115865760405162461bcd60e51b815260206004820181905260248201527f4f6e6c7920766f7465722063616e2072657665616c20746865697220766f7465604482015260640161073a565b60008481526001602052604090206005015460ff16156115e05760405162461bcd60e51b8152602060048201526015602482015274159bdd1948185b1c9958591e481c995d99585b1959605a1b604482015260640161073a565b60008481526001602081905260408220600501805460ff19168217905560ff851690036116435760008181526020819052604090206003015461162c9061162760016116ea565b61173d565b600082815260208190526040902060030155611676565b6000818152602081905260409020600401546116639061162760016116ea565b6000828152602081905260409020600401555b6040513390829087907f87a8dad44ab7b646587e24d928f76d4995041f1a43b81ac4bc0e37daf7b57d9190600090a45050505050565b60008181526020819052604081206006810154610100900460ff1680156109fe57506201518081600801546116e19190611f0d565b42119392505050565b6000610a2d8263ffffffff166004611792565b60006109fe8383600461182f565b60008261171f5761171c60006116ea565b92505b816117315761172e60006116ea565b91505b6109fe83836000611934565b6000826117515761174e60006116ea565b92505b816117635761176060006116ea565b91505b6109fe838360006119f8565b600061177b8230611a73565b5090565b600061178b8383611a73565b5090919050565b60008051602061215183398151915254604051639cd07acb60e01b8152600091600080516020612171833981519152916001600160a01b0390911690639cd07acb906117e490879087906004016120e1565b6020604051808303816000875af1158015611803573d6000803e3d6000fd5b505050506040513d601f19601f8201168201806040525081019061182791906120f5565b949350505050565b6000805160206121518339815191525460405163196d0b9b60e01b8152600091600080516020612171833981519152916001600160a01b039091169063196d0b9b9061188590889033908990899060040161210e565b6020604051808303816000875af11580156118a4573d6000803e3d6000fd5b505050506040513d601f19601f820116820180604052508101906118c891906120f5565b8154604051630f8e573b60e21b8152600481018390523360248201529193506001600160a01b031690633e395cec90604401600060405180830381600087803b15801561191457600080fd5b505af1158015611928573d6000803e3d6000fd5b50505050509392505050565b60008082156119485750600160f81b61194c565b5060005b600080516020612151833981519152546040516303056db360e31b815260048101879052602481018690526001600160f81b031983166044820152600080516020612171833981519152916001600160a01b03169063182b6d98906064015b6020604051808303816000875af11580156119ca573d6000803e3d6000fd5b505050506040513d601f19601f820116820180604052508101906119ee91906120f5565b9695505050505050565b6000808215611a0c5750600160f81b611a10565b5060005b6000805160206121518339815191525460405163022f65e760e31b815260048101879052602481018690526001600160f81b031983166044820152600080516020612171833981519152916001600160a01b03169063117b2f38906064016119ab565b60006000805160206121718339815191528054604051635ca4b5b160e11b8152600481018690526001600160a01b03858116602483015292935091169063b9496b6290604401600060405180830381600087803b158015611ad357600080fd5b505af1158015611ae7573d6000803e3d6000fd5b50505050505050565b600060208284031215611b0257600080fd5b5035919050565b6000815180845260005b81811015611b2f57602081850181015186830182015201611b13565b506000602082860101526020601f19601f83011685010191505092915050565b60006101808e8352806020840152611b698184018f611b09565b90508281036040840152611b7d818e611b09565b606084019c909c525050608081019890985260a088019690965293151560c087015291151560e08601526001600160a01b0316610100850152610120840152610140830152610160909101529392505050565b634e487b7160e01b600052604160045260246000fd5b600082601f830112611bf757600080fd5b813567ffffffffffffffff80821115611c1257611c12611bd0565b604051601f8301601f19908116603f01168101908282118183101715611c3a57611c3a611bd0565b81604052838152866020858801011115611c5357600080fd5b836020870160208301376000602085830101528094505050505092915050565b600080600060608486031215611c8857600080fd5b833567ffffffffffffffff80821115611ca057600080fd5b611cac87838801611be6565b94506020860135915080821115611cc257600080fd5b50611ccf86828701611be6565b925050604084013590509250925092565b80356001600160a01b0381168114611cf757600080fd5b919050565b60008060408385031215611d0f57600080fd5b611d1883611ce0565b946020939093013593505050565b60008083601f840112611d3857600080fd5b50813567ffffffffffffffff811115611d5057600080fd5b602083019150836020828501011115611d6857600080fd5b9250929050565b60008060008060608587031215611d8557600080fd5b8435935060208501359250604085013567ffffffffffffffff811115611daa57600080fd5b611db687828801611d26565b95989497509550505050565b600060208284031215611dd457600080fd5b6109fe82611ce0565b6000610160808352611df18184018f611b09565b90508281036020840152611e05818e611b09565b60ff9c8d1660408501529a8c166060840152505096909816608087015293151560a086015291151560c08501526001600160a01b031660e0840152610100830152610120820152610140019190915292915050565b60008060008060608587031215611e7057600080fd5b84359350602085013560ff81168114611e8857600080fd5b9250604085013567ffffffffffffffff811115611daa57600080fd5b600181811c90821680611eb857607f821691505b602082108103611ed857634e487b7160e01b600052602260045260246000fd5b50919050565b634e487b7160e01b600052601160045260246000fd5b600060018201611f0657611f06611ede565b5060010190565b80820180821115610a2d57610a2d611ede565b601f821115611f6c576000816000526020600020601f850160051c81016020861015611f495750805b601f850160051c820191505b81811015611f6857828155600101611f55565b5050505b505050565b815167ffffffffffffffff811115611f8b57611f8b611bd0565b611f9f81611f998454611ea4565b84611f20565b602080601f831160018114611fd45760008415611fbc5750858301515b600019600386901b1c1916600185901b178555611f68565b600085815260208120601f198616915b8281101561200357888601518255948401946001909101908401611fe4565b50858210156120215787850151600019600388901b60f8161c191681555b5050505050600190811b01905550565b6020815260006109fe6020830184611b09565b60208082526024908201527f4f6e6c792076657269666965722063616e2063616c6c20746869732066756e636040820152633a34b7b760e11b606082015260800190565b60208082526017908201527f50726f706f73616c20646f6573206e6f74206578697374000000000000000000604082015260600190565b605481106120dd57634e487b7160e01b600052602160045260246000fd5b9052565b828152604081016109fe60208301846120bf565b60006020828403121561210757600080fd5b5051919050565b8481526001600160a01b038416602082015260806040820181905260009061213890830185611b09565b905061214760608301846120bf565b9594505050505056fe9e7b61f58c47dc699ac88507c4f5bb9f121c03808c5676a8078fe583e46497019e7b61f58c47dc699ac88507c4f5bb9f121c03808c5676a8078fe583e4649700a2646970667358221220896a38895bc736aa20c0082b3b725f1eaa76b6ef1ed8ff9f9865a9864301274164736f6c63430008180033",
  "linkReferences": {},
  "deployedLinkReferences": {}
}